:020000040800F2
:10000000005000208D0B0008090B00080F0B0008A2
:10001000150B00081B0B0008210B00080000000056
:10002000000000000000000000000000270B000896
:10003000330B0008000000003F0B00084B0B0008CA
:10004000D50B0008D50B0008D50B0008D50B000810
:10005000D50B0008D50B0008D50B0008D50B000800
:10006000D50B0008D50B0008D50B0008D50B0008F0
:10007000D50B0008D50B0008D50B0008D50B0008E0
:10008000D50B0008D50B0008D50B0008D50B0008D0
:10009000D50B0008D50B0008D50B0008D50B0008C0
:1000A000D50B0008D50B0008D50B0008D50B0008B0
:1000B000D50B0008590B0008D50B0008D50B00081C
:1000C000D50B0008D50B0008D50B0008D50B000890
:1000D000D50B00086D0B0008D50B0008D50B0008E8
:1000E000D50B0008D50B0008D50B00080000000058
:1000F0000000000000000000000000000000000000
:0C01000000000000000000005FF808F1A3
:10010C0010B5054C237833B9044B13B10448AFF345
:10011C0000800123237010BD24000020000000008B
:10012C008C2D000808B5034B1BB103490348AFF3F2
:10013C00008008BD00000000280000208C2D000865
:10014C0080B500AF00F042FD00F040F800F0FAF886
:10015C0000F082F800F0CCF800F0FCF9164B1B68AC
:10016C006FF001021A61144801F094FD40F6B830AA
:10017C0000F08EFD114B19225A6100BF0922104963
:10018C00104802F0C2F90346002BF7D100BF092238
:10019C000B490C4802F075F90346002BF7D10A4BBA
:1001AC001B68012BFBD10921054800F025FA064BF1
:1001BC0000221A60F3E700BF70000020000000204E
:1001CC0008010020B80000201401002080B590B078
:1001DC0000AF07F1180328220021184602F0C8FDD1
:1001EC003B1D00221A605A609A60DA601A61012382
:1001FC00BB614FF48033FB6100233B620123BB6284
:10020C0002237B634FF48033BB634FF4E013FB6337
:10021C0007F11803184601F0D3F80346002B01D060
:10022C0000F0BAFB0F237B600223BB600023FB6052
:10023C004FF480633B6100237B613B1D0221184618
:10024C0001F040FB0346002B01D000F0A5FB00BFE2
:10025C004037BD4680BD000080B586B000AF07F1C9
:10026C00080300221A605A609A60DA603B4600224A
:10027C001A605A601C4B1D4A1A601B4B47225A606D
:10028C00194B00229A60184B1322DA60164B00228D
:10029C001A61154B00229A61134801F0ABFC03461E
:1002AC00002B01D000F078FB4FF48053BB6007F1BA
:1002BC00080319460C4801F047FE0346002B01D0F9
:1002CC0000F06AFB00233B6000237B603B46194631
:1002DC00054802F019F80346002B01D000F05CFB36
:1002EC0000BF1837BD4680BD7000002000040040E0
:1002FC0080B500AF114B124A1A60104B4FF4E1322B
:10030C005A600E4B00229A600C4B0022DA600B4BA9
:10031C0000221A61094B0C225A61084B00229A6187
:10032C00064B0022DA61054802F05EF80346002B0A
:10033C0001D000F031FB00BF80BD00BFB800002031
:10034C000038014080B588B000AF07F110030022DF
:10035C001A605A609A60DA603F4B9B693E4A43F0E0
:10036C00200393613C4B9B6903F02003FB60FB680B
:10037C00394B9B69384A43F004039361364B9B69B4
:10038C0003F00403BB60BB68334B9B69324A43F0F8
:10039C0010039361304B9B6903F010037B607B6807
:1003AC002D4B9B692C4A43F0080393612A4B9B69A4
:1003BC0003F008033B603B6800224FF4E0512748F0
:1003CC0000F0CCFF00220421254800F0C7FF0022DA
:1003DC004FF44871234800F0C1FF4FF4E0533B61E8
:1003EC0001237B610023BB610323FB6107F1100335
:1003FC0019461A4800F02EFE04233B6101237B6151
:10040C000023BB610323FB6107F110031946144859
:10041C0000F020FE4FF490733B6101237B610023BD
:10042C00BB610323FB6107F1100319460D4800F073
:10043C0011FE4FF400733B6101237B610023BB6110
:10044C000223FB6107F110031946064800F002FE77
:10045C0000BF2037BD4680BD001002400010014097
:10046C0000140140000C014080B582B000AF7860F0
:10047C007B68324A934257D1314B1B680133304A67
:10048C001360304B00221A6042E02E4B1B682E4A40
:10049C0052F823202A4B1B689A421ADB294B1B6803
:1004AC002A4AD35C002B2ED1264B1B68284A52F8C3
:1004BC003300244B1B68264ADB0013449B88012223
:1004CC00194600F04BFF1F4B1B68204A0121D154E9
:1004DC0019E01C4B1B681D4AD35C012B13D1194B23
:1004EC001B681B4A52F83320164B1B681849DB005B
:1004FC000B449B881946104600F048FF114B1B68B3
:10050C00124A0021D1540F4B1B6801330D4A136062
:10051C000C4B1B68052BB8DD094B1B68B3F57A7FB8
:10052C0002DD074B01221A60044B1B686FF00102BD
:10053C001A6100BF0837BD4680BD00BF70000020A7
:10054C00FC0000201C010020000000200001002005
:10055C004000002080B400AF154B164A1A60144BB3
:10056C004FF480729A80124B124A9A60104B2022E0
:10057C009A810F4B104A1A610D4B04229A820C4B34
:10058C000E4A9A610A4B4FF480529A83084B0B4ADD
:10059C001A62074B4FF400629A84054B074A9A6221
:1005AC00034B4FF480629A8500BFBD4680BC7047F8
:1005BC0040000020000C01400014014000100140DC
:1005CC0080B582B000AF7860084B01221A6000BF82
:1005DC0009220749074801F098FF0346002BF7D181
:1005EC0000BF00BF0837BD4680BD00BF140100200E
:1005FC0008010020B800002080B58AB000AF7860F8
:10060C003960002387F82730002387F82630002331
:10061C0087F82530864A07F11C0392E8030018601E
:10062C0004331980824A07F1140392E8030018601E
:10063C00043319807F4A07F10C0392E80300186019
:10064C00043319807B681B78AA2B23D17B68083371
:10065C001B78FF2B1ED17B68DA79774B1A7000233D
:10066C0087F8273012E097F9273001337A681A445B
:10067C0097F92730127828333B4403F80C2C97F960
:10068C002730DBB20133DBB287F8273097F92730FC
:10069C00052BE8DD684B1B78002B25D1002387F850
:1006AC0027301DE097F9273028333B4413F80C3CD6
:1006BC001A46642302FB03F3604A82FB03121A44BA
:1006CC00D211DB17D21A97F9273019325C4941F84D
:1006DC00232097F92730DBB20133DBB287F82730C0
:1006EC0097F92730052BDDDD534B1B78012B40F0A0
:1006FC009580002387F8273038E097F92730283386
:10070C003B4413F80C3C1A46642302FB03F34B4A9C
:10071C0082FB03121A44D211DB17D31ADAB297F9FF
:10072C002730474951F82330DBB2D31ADBB21933E7
:10073C00DAB297F9273052B228333B4403F8142C21
:10074C0097F9273028333B4413F9143C002B06DA75
:10075C0097F9273028333B44FF2203F81C2C97F9D8
:10076C002730DBB20133DBB287F8273097F927301B
:10077C00052BC2DD002387F8273043E0002387F8E0
:10078C00263031E097F926302D4A52F8232097F97C
:10079C00263028333B4413F80C3C1946642301FBE8
:1007AC0003F3264981FB03011944C911DB17CB1A4A
:1007BC0019339A4211D097F92630214A52F8232046
:1007CC0097F9263028333B4413F91C3C194697F90A
:1007DC0026300A441A4941F8232097F92630DBB217
:1007EC000133DBB287F8263097F92630052BC9DDAB
:1007FC000A2000F04DFA97F92730DBB20133DBB257
:10080C0087F8273007F114030621184600F01CF86E
:10081C0003461A4697F927309342AFDB012206496B
:10082C00084801F02EFE00BF18462837BD4680BD93
:10083C00A42D0008AC2D000818010020B7600BB6E1
:10084C0000000020B80000202DE9F04387B000AF75
:10085C0078600B46FB706B461E4697F903100B46EF
:10086C00013B3B610A460023904699464FF000023B
:10087C004FF000034FEAC90343EA58734FEAC8022A
:10088C000A46002314461D464FF000024FF00003A9
:10089C00EB0043EA5473E2000B460733DB08DB0042
:1008AC00ADEB030D6B460033FB600023FB7500239F
:1008BC00FB750FE097F917307A681A4497F91730DF
:1008CC0092F90010FA68D15497F91730DBB2013362
:1008DC00DBB2FB7597F9172097F903309A42E9DBE5
:1008EC000023FB752DE097F917300133FA68D356C6
:1008FC00184600F03CF803461C4697F91730FA6886
:10090C00D356184600F033F803469C4213DA97F995
:10091C001730FA68D35CFB7297F917305A1C97F9A9
:10092C001730F9688956FA68D15497F917300133A2
:10093C00FA68F97AD15497F91730DBB20133DBB28C
:10094C00FB7597F9172097F90330013B9A42CADBE4
:10095C0097F90330013BFA68D356184600F007F8B4
:10096C000346B54618461C37BD46BDE8F08380B437
:10097C0083B000AF0346FB7197F90730002B02DB05
:10098C0097F9073003E0FB795B42DBB25BB21846A8
:10099C000C37BD4680BC704780B400AF72B600BF48
:1009AC00FEE7000080B485B000AF154B9B69144A7C
:1009BC0043F001039361124B9B6903F00103BB608D
:1009CC00BB680F4BDB690E4A43F08053D3610C4B71
:1009DC00DB6903F080537B607B680A4B5B68FB60D0
:1009EC00FB6823F0E063FB60FB6843F00073FB6083
:1009FC00044AFB68536000BF1437BD4680BC704787
:100A0C00001002400000014080B584B000AF786057
:100A1C007B681B680D4A934213D10D4BDB690C4A62
:100A2C0043F00203D3610A4BDB6903F00203FB6062
:100A3C00FB68002200211D2000F025FA1D2000F08B
:100A4C003EFA00BF1037BD4680BD00BF0004004019
:100A5C000010024080B588B000AF786007F1100339
:100A6C0000221A605A609A60DA607B681B68204A20
:100A7C00934239D11F4B9B691E4A43F480439361C7
:100A8C001C4B9B6903F48043FB60FB68194B9B690F
:100A9C00184A43F004039361164B9B6903F004035B
:100AAC00BB60BB684FF400733B6102237B61032383
:100ABC00FB6107F1100319460F4800F0CBFA4FF415
:100ACC0080633B6100237B610023BB6107F1100352
:100ADC001946094800F0BEFA00220021252000F03A
:100AEC00D2F9252000F0EBF900BF2037BD4680BDC0
:100AFC0000380140001002400008014080B400AFF3
:100B0C00FEE780B400AFFEE780B400AFFEE780B430
:100B1C0000AFFEE780B400AFFEE780B400AF00BFCB
:100B2C00BD4680BC704780B400AF00BFBD4680BCE2
:100B3C00704780B400AF00BFBD4680BC704780B525
:100B4C0000AF00F089F800BF80BD000080B500AF99
:100B5C00024801F0F1F800BF80BD00BF700000201A
:100B6C0080B500AF024801F001FD00BF80BD00BFA1
:100B7C00B800002080B400AF00BFBD4680BC7047F9
:100B8C000C480D490D4A002302E0D458C4500433DC
:100B9C00C4188C42F9D30A4A0A4C002301E01360B2
:100BAC000432A242FBD3FFF7E5FF02F0BDF8FFF7DA
:100BBC00C7FA70470000002024000020E42D000834
:100BCC002400002024010020FEE7000080B500AFC7
:100BDC00084B1B68074A43F010031360032000F016
:100BEC0047F90F2000F008F8FFF7DCFE0023184649
:100BFC0080BD00BF0020024080B582B000AF78609D
:100C0C00124B1A68124B1B7819464FF47A73B3FBCC
:100C1C00F1F3B2FBF3F3184600F05FF90346002B37
:100C2C0001D001230EE07B680F2B0AD800227968D3
:100C3C004FF0FF3000F027F9064A7B681360002361
:100C4C0000E0012318460837BD4680BD180000207F
:100C5C00200000201C00002080B400AF054B1B7846
:100C6C001A46054B1B681344034A136000BFBD466C
:100C7C0080BC7047200000202001002080B400AF11
:100C8C00024B1B681846BD4680BC704720010020F3
:100C9C0080B584B000AF7860FFF7F0FFB8607B6878
:100CAC00FB60FB68B3F1FF3F05D00A4B1B781A467B
:100CBC00FB681344FB6000BFFFF7E0FF0246BB6814
:100CCC00D31AFA689A42F7D800BF00BF1037BD4656
:100CDC0080BD00BF2000002080B485B000AF7860DC
:100CEC007B6803F00703FB600C4BDB68BB60BA68E6
:100CFC004FF6FF031340BB60FB681A02BB6813433B
:100D0C0043F0BF6343F40033BB60044ABB68D36059
:100D1C0000BF1437BD4680BC704700BF00ED00E03B
:100D2C0080B400AF044BDB681B0A03F007031846C2
:100D3C00BD4680BC704700BF00ED00E080B483B0BE
:100D4C0000AF0346FB7197F90730002B0BDBFB79E7
:100D5C0003F01F02064997F907305B09012000FADE
:100D6C0002F241F8232000BF0C37BD4680BC70470F
:100D7C0000E100E080B483B000AF03463960FB7142
:100D8C0097F90730002B0ADB3B68DAB20C4997F96C
:100D9C0007301201D2B20B4483F800230AE03B68FF
:100DAC00DAB20849FB7903F00F03043B1201D2B20B
:100DBC000B441A7600BF0C37BD4680BC704700BF91
:100DCC0000E100E000ED00E080B489B000AFF86015
:100DDC00B9607A60FB6803F00703FB61FB69C3F140
:100DEC000703042B28BF0423BB61FB690433062BC8
:100DFC0002D9FB69033B00E000237B614FF0FF321B
:100E0C00BB6902FA03F3DA43BB681A407B699A4068
:100E1C004FF0FF317B6901FA03F3D9437B680B4038
:100E2C00134318462437BD4680BC704780B582B04A
:100E3C0000AF78607B68013BB3F1807F01D3012365
:100E4C000FE00A4A7B68013B53600F214FF0FF30E3
:100E5C00FFF790FF054B00229A60044B07221A60A3
:100E6C00002318460837BD4680BD00BF10E000E0E7
:100E7C0080B582B000AF78607868FFF72DFF00BFB7
:100E8C000837BD4680BD80B586B000AF0346B9605B
:100E9C007A60FB7300237B61FFF742FF78617A680D
:100EAC00B9687869FFF790FF024697F90F30114641
:100EBC001846FFF75FFF00BF1837BD4680BD80B5F1
:100ECC0082B000AF0346FB7197F907301846FFF765
:100EDC0035FF00BF0837BD4680BD80B582B000AF7E
:100EEC0078607868FFF7A2FF034618460837BD46BE
:100EFC0080BD80B485B000AF78600023FB737B6845
:100F0C0093F82130022B08D07B6804229A637B680B
:100F1C00002283F82020012320E07B681B681A68DC
:100F2C007B681B6822F00E021A607B681B681A68CB
:100F3C007B681B6822F001021A607B681A6C7B6864
:100F4C00DB6B012101FA02F25A607B68012283F803
:100F5C0021207B68002283F82020FB7B1846143765
:100F6C00BD4680BC7047000080B584B000AF78608F
:100F7C000023FB737B6893F82130022B05D07B6830
:100F8C0004229A630123FB7351E07B681B681A6887
:100F9C007B681B6822F00E021A607B681B681A685B
:100FAC007B681B6822F001021A607B681B68224A6E
:100FBC00934229D07B681B68204A934222D07B68DD
:100FCC001B681F4A93421AD07B681B681D4A9342C8
:100FDC0012D07B681B681C4A93420AD07B681B6842
:100FEC001A4A934202D14FF480130EE04FF08073F3
:100FFC000BE04FF4803308E04FF4805305E04FF4DE
:10100C00807302E0102300E00123114A53607B68D7
:10101C00012283F821207B68002283F820207B6842
:10102C005B6B002B03D07B685B6B78689847FB7B12
:10103C0018461037BD4680BD080002401C00024017
:10104C003000024044000240580002406C00024054
:10105C000000024080B48BB000AF78603960002390
:10106C007B6200233B6269E101227B6A02FA03F393
:10107C00FB613B681B68FA691340BB61BA69FB6989
:10108C009A4240F058813B685B689A4A93425ED022
:10109C00984A934275D8984A934258D0964A9342AC
:1010AC006FD8964A934252D0944A934269D8944A44
:1010BC0093424CD0924A934263D8924A934246D080
:1010CC00904A93425DD8122B2AD8122B59D801A2E0
:1010DC0052F823F05B110008351100084711000885
:1010EC00891100088F1100088F1100088F1100085A
:1010FC008F1100088F1100088F1100088F11000844
:10110C008F1100088F1100088F1100088F11000833
:10111C008F1100088F1100083D11000851110008B3
:10112C00794A934213D02CE03B68DB683B6229E0A0
:10113C003B68DB6804333B6224E03B68DB680833C4
:10114C003B621FE03B68DB680C333B621AE03B6898
:10115C009B68002B02D104233B6213E03B689B6825
:10116C00012B05D108233B627B68FA691A6109E0FF
:10117C0008233B627B68FA695A6103E000233B62F7
:10118C0000E000BFBB69FF2B01D87B6801E07B68E6
:10119C0004337B61BB69FF2B02D87B6A9B0002E0A6
:1011AC007B6A083B9B003B617B691A680F213B699A
:1011BC0001FA03F3DB431A40396A3B6901FA03F382
:1011CC001A437B691A603B685B6803F08053002B01
:1011DC0000F0B1804D4B9B694C4A43F00103936185
:1011EC004A4B9B6903F00103BB60BB68484A7B6AAE
:1011FC009B08023352F82330FB607B6A03F0030335
:10120C009B000F2202FA03F3DB43FA681340FB60E6
:10121C007B68404A934213D07B683F4A93420DD07F
:10122C007B683E4A934207D07B683D4A934201D18A
:10123C00032306E0042304E0022302E0012300E080
:10124C0000237A6A02F0030292009340FA68134377
:10125C00FB602F497B6A9B080233FA6841F8232014
:10126C003B685B6803F48033002B06D02D4B1A6867
:10127C002C49BB6913430B6006E02A4B1A68BB6907
:10128C00DB43284913400B603B685B6803F4003375
:10129C00002B06D0234B5A682249BB6913434B6081
:1012AC0006E0204B5A68BB69DB431E4913404B6078
:1012BC003B685B6803F48013002B06D0194B9A68CB
:1012CC001849BB6913438B6006E0164B9A68BB69DF
:1012DC00DB43144913408B603B685B6803F40013D9
:1012EC00002B21D00F4BDA680E49BB691343CB603E
:1012FC0021E000BF0000321000003110000022106D
:10130C00000021100000121000001110001002400B
:10131C000000014000080140000C01400010014099
:10132C0000140140000401400B4BDA68BB69DB433D
:10133C0009491340CB607B6A01337B623B681A68B6
:10134C007B6A22FA03F3002B7FF48EAE00BF00BF42
:10135C002C37BD4680BC70470004014080B483B07C
:10136C0000AF78600B467B8013467B707B78002B3C
:10137C0003D07A887B681A6103E07B881A047B6847
:10138C001A6100BF0C37BD4680BC704780B485B075
:10139C0000AF78600B467B807B68DB68FB607A88EB
:1013AC00FB6813401A04FB68D9437B880B401A4333
:1013BC007B681A6100BF1437BD4680BC70470000C3
:1013CC0080B586B000AF78607B68002B01D101231B
:1013DC0072E27B681B6803F00103002B00F087802E
:1013EC00924B5B6803F00C03042B0CD08F4B5B68A7
:1013FC0003F00C03082B12D18C4B5B6803F4803385
:10140C00B3F5803F0BD1894B1B6803F40033002BE1
:10141C006CD07B685B68002B68D101234CE27B6845
:10142C005B68B3F5803F06D1804B1B687F4A43F461
:10143C00803313602EE07B685B68002B0CD17B4BF8
:10144C001B687A4A23F480331360784B1B68774A05
:10145C0023F4802313601DE07B685B68B3F5A02F39
:10146C000CD1724B1B68714A43F4802313606F4B91
:10147C001B686E4A43F4803313600BE06B4B1B68A4
:10148C006A4A23F480331360684B1B68674A23F461
:10149C00802313607B685B68002B13D0FFF7EEFB97
:1014AC00386108E0FFF7EAFB02463B69D31A642B6C
:1014BC0001D9032300E25D4B1B6803F40033002BBE
:1014CC00F0D014E0FFF7DAFB386108E0FFF7D6FB49
:1014DC0002463B69D31A642B01D90323ECE1534B2D
:1014EC001B6803F40033002BF0D100E000BF7B68D5
:1014FC001B6803F00203002B63D04C4B5B6803F0BA
:10150C000C03002B0BD0494B5B6803F00C03082B2E
:10151C001CD1464B5B6803F48033002B16D1434B34
:10152C001B6803F00203002B05D07B681B69012BA1
:10153C0001D00123C0E13D4B1B6823F0F8027B680E
:10154C005B69DB00394913430B603AE07B681B692C
:10155C00002B20D0364B01221A60FFF78FFB38612D
:10156C0008E0FFF78BFB02463B69D31A022B01D92B
:10157C000323A1E12D4B1B6803F00203002BF0D0D9
:10158C002A4B1B6823F0F8027B685B69DB00274958
:10159C0013430B6015E0264B00221A60FFF76EFB1D
:1015AC00386108E0FFF76AFB02463B69D31A022B4D
:1015BC0001D9032380E11D4B1B6803F00203002BB0
:1015CC00F0D17B681B6803F00803002B3AD07B68D2
:1015DC009B69002B19D0174B01221A60FFF74EFBA9
:1015EC00386108E0FFF74AFB02463B69D31A022B2D
:1015FC0001D9032360E10D4B5B6A03F00203002B5E
:10160C00F0D0012000F0D8FA1CE00A4B00221A603E
:10161C00FFF734FB38610FE0FFF730FB02463B6904
:10162C00D31A022B08D9032346E100BF0010024055
:10163C000000424280044242924B5B6A03F0020378
:10164C00002BE9D17B681B6803F00403002B00F02E
:10165C00A6800023FB758B4BDB6903F08053002BBA
:10166C000DD1884BDB69874A43F08053D361854B9E
:10167C00DB6903F08053BB60BB680123FB75824BB5
:10168C001B6803F48073002B18D17F4B1B687E4AB8
:10169C0043F480731360FFF7F1FA386108E0FFF749
:1016AC00EDFA02463B69D31A642B01D9032303E1FB
:1016BC00754B1B6803F48073002BF0D07B68DB68E0
:1016CC00012B06D16F4B1B6A6E4A43F00103136268
:1016DC002DE07B68DB68002B0CD16A4B1B6A694AD6
:1016EC0023F001031362674B1B6A664A23F0040361
:1016FC0013621CE07B68DB68052B0CD1614B1B6A09
:10170C00604A43F0040313625E4B1B6A5D4A43F06C
:10171C00010313620BE05B4B1B6A5A4A23F0010373
:10172C001362584B1B6A574A23F0040313627B68FD
:10173C00DB68002B15D0FFF7A1FA38610AE0FFF740
:10174C009DFA02463B69D31A41F28832934201D981
:10175C000323B1E04B4B1B6A03F00203002BEED0CA
:10176C0014E0FFF78BFA38610AE0FFF787FA0246BC
:10177C003B69D31A41F28832934201D903239BE08F
:10178C00404B1B6A03F00203002BEED1FB7D012BB7
:10179C0005D13C4BDB693B4A23F08053D3617B681A
:1017AC00DB69002B00F08780364B5B6803F00C0381
:1017BC00082B61D07B68DB69022B46D1334B0022AE
:1017CC001A60FFF75BFA386108E0FFF757FA024638
:1017DC003B69D31A022B01D903236DE0294B1B68FB
:1017EC0003F00073002BF0D17B681B6AB3F5803FCC
:1017FC0008D1244B5B6823F400327B689B68214939
:10180C0013434B601F4B5B6823F474127B68196A9B
:10181C007B685B6A0B431B4913434B601B4B0122D8
:10182C001A60FFF72BFA386108E0FFF727FA024637
:10183C003B69D31A022B01D903233DE0114B1B68E2
:10184C0003F00073002BF0D035E0104B00221A602F
:10185C00FFF714FA386108E0FFF710FA02463B690B
:10186C00D31A022B01D9032326E0064B1B6803F085
:10187C000073002BF0D11EE07B68DB69012B07D1D4
:10188C00012319E000100240007000406000424249
:10189C000B4B5B68FB60FB6803F480327B681B6A54
:1018AC009A4206D1FB6803F470127B685B6A9A4219
:1018BC0001D0012300E0002318461837BD4680BD37
:1018CC000010024080B584B000AF786039607B684E
:1018DC00002B01D10123D0E06A4B1B6803F00703F6
:1018EC003A689A4210D9674B1B6823F00702654986
:1018FC003B6813430B60634B1B6803F007033A68A8
:10190C009A4201D00123B8E07B681B6803F0020304
:10191C00002B20D07B681B6803F00403002B05D040
:10192C00594B5B68584A43F4E06353607B681B680F
:10193C0003F00803002B05D0534B5B68524A43F469
:10194C0060535360504B5B6823F0F0027B689B68DC
:10195C004D4913434B607B681B6803F00103002B5C
:10196C0040D07B685B68012B07D1474B1B6803F4A5
:10197C000033002B15D101237FE07B685B68022BC1
:10198C0007D1414B1B6803F00073002B09D10123D5
:10199C0073E03D4B1B6803F00203002B01D10123C4
:1019AC006BE0394B5B6823F003027B685B6836495C
:1019BC0013434B60FFF762F9F8600AE0FFF75EF93A
:1019CC000246FB68D31A41F28832934201D90323B1
:1019DC0053E02D4B5B6803F00C027B685B689B004B
:1019EC009A42EBD1274B1B6803F007033A689A42E3
:1019FC0010D2244B1B6823F0070222493B68134387
:101A0C000B60204B1B6803F007033A689A4201D025
:101A1C00012332E07B681B6803F00403002B08D021
:101A2C00194B5B6823F4E0627B68DB68164913434F
:101A3C004B607B681B6803F00803002B09D0124B2A
:101A4C005B6823F460527B681B69DB000E4913430F
:101A5C004B6000F021F802460B4B5B681B0903F04E
:101A6C000F030A49CB5C22FA03F3094A1360094BB2
:101A7C001B681846FFF7C0F8002318461037BD4600
:101A8C0080BD00BF0020024000100240C42D0008A1
:101A9C00180000201C00002090B48AB000AF294B25
:101AAC003C1D0FCB84E80F0040F201233B80002348
:101ABC00FB610023BB6100237B6200237B6100235D
:101ACC003B62214B5B68FB61FB6903F00C03042B4D
:101ADC0002D0082B03D02BE01C4B3B622BE0FB69A4
:101AEC009B0C03F00F0328333B4413F8243C7B611D
:101AFC00FB6903F48033002B12D0134B5B685B0C37
:101B0C0003F0010328333B4413F8283CBB617B6989
:101B1C000E4A03FB02F2BB69B2FBF3F37B6204E0F7
:101B2C007B690B4A02FB03F37B627B6A3B6202E03C
:101B3C00064B3B6200BF3B6A18462837BD4690BC3B
:101B4C00704700BFB42D00080010024000127A004C
:101B5C0000093D0080B400AF024B1B681846BD461F
:101B6C0080BC70471800002080B500AFFFF7F2FF73
:101B7C000246054B5B681B0A03F007030349CB5C69
:101B8C0022FA03F3184680BD00100240D42D000841
:101B9C0080B500AFFFF7DEFF0246054B5B68DB0A42
:101BAC0003F007030349CB5C22FA03F3184680BD0C
:101BBC0000100240D42D000880B485B000AF7860CE
:101BCC000A4B1B680A4AA2FB03235B0A7A6802FBD6
:101BDC0003F3FB6000BFFB685A1EFA60002BF9D1BF
:101BEC0000BF00BF1437BD4680BC704718000020F2
:101BFC00D34D621080B582B000AF78607B68002B4B
:101C0C0001D1012341E07B6893F83D30DBB2002B1E
:101C1C0006D17B68002283F83C207868FEF7F4FE3E
:101C2C007B68022283F83D207B681A687B6804334A
:101C3C001946104600F070FA7B68012283F84620A2
:101C4C007B68012283F83E207B68012283F83F20C9
:101C5C007B68012283F840207B68012283F84120B5
:101C6C007B68012283F842207B68012283F84320A1
:101C7C007B68012283F844207B68012283F845208D
:101C8C007B68012283F83D20002318460837BD46A7
:101C9C0080BD000080B485B000AF78607B6893F89D
:101CAC003D30DBB2012B01D001233AE07B680222EC
:101CBC0083F83D207B681B68DA687B681B6842F000
:101CCC000102DA607B681B68184A93420ED07B686D
:101CDC001B68B3F1804F09D07B681B68144A934290
:101CEC0004D07B681B68134A934211D17B681B6834
:101CFC009B6803F00703FB60FB68062B10D07B6826
:101D0C001B681A687B681B6842F001021A6007E0C6
:101D1C007B681B681A687B681B6842F001021A60BA
:101D2C00002318461437BD4680BC7047002C014078
:101D3C00000400400008004080B582B000AF78601D
:101D4C007B681B681B6903F00203022B22D17B68A2
:101D5C001B68DB6803F00203022B1BD17B681B683A
:101D6C006FF002021A617B6801221A777B681B688C
:101D7C009B6903F00303002B03D0786800F0B1F9E2
:101D8C0005E0786800F0A4F9786800F0B3F97B6896
:101D9C0000221A777B681B681B6903F00403042B71
:101DAC0022D17B681B68DB6803F00403042B1BD176
:101DBC007B681B686FF004021A617B6802221A7739
:101DCC007B681B689B6903F44073002B03D0786815
:101DDC0000F087F905E0786800F07AF9786800F08F
:101DEC0089F97B6800221A777B681B681B6903F0F2
:101DFC000803082B22D17B681B68DB6803F00803FF
:101E0C00082B1BD17B681B686FF008021A617B687A
:101E1C0004221A777B681B68DB6903F00303002B31
:101E2C0003D0786800F05DF905E0786800F050F9AF
:101E3C00786800F05FF97B6800221A777B681B6872
:101E4C001B6903F01003102B22D17B681B68DB6825
:101E5C0003F01003102B1BD17B681B686FF0100272
:101E6C001A617B6808221A777B681B68DB6903F4AC
:101E7C004073002B03D0786800F033F905E07868E4
:101E8C0000F026F9786800F035F97B6800221A77A3
:101E9C007B681B681B6903F00103012B0ED17B6867
:101EAC001B68DB6803F00103012B07D17B681B68FF
:101EBC006FF001021A617868FEF7D6FA7B681B682E
:101ECC001B6903F08003802B0ED17B681B68DB68D9
:101EDC0003F08003802B07D17B681B686FF08002B6
:101EEC001A61786800F077FA7B681B681B6903F04D
:101EFC004003402B0ED17B681B68DB6803F040036A
:101F0C00402B07D17B681B686FF040021A61786820
:101F1C0000F0F9F87B681B681B6903F02003202B89
:101F2C000ED17B681B68DB6803F02003202B07D1E4
:101F3C007B681B686FF020021A61786800F042FA27
:101F4C0000BF0837BD4680BD80B584B000AF786057
:101F5C0039607B6893F83C30012B01D10223B3E04C
:101F6C007B68012283F83C207B68022283F83D20A9
:101F7C007B681B689B68FB60FB6823F07703FB6046
:101F8C00FB6823F47F43FB607B681B68FA689A60EC
:101F9C003B681B68B3F5005F3ED0B3F5005F00F201
:101FAC008780B3F5805F00F08580B3F5805F7FD8C4
:101FBC00702B1AD0702B7BD8602B50D0602B77D81D
:101FCC00502B3CD0502B73D8402B58D0402B6FD873
:101FDC00302B64D0302B6BD8202B60D0202B67D8C3
:101FEC00002B5CD0102B5AD062E07B6818683B68E1
:101FFC0099683B685A683B68DB6800F066F97B6857
:10200C001B689B68FB60FB6843F07703FB607B6895
:10201C001B68FA689A604EE07B6818683B689968A0
:10202C003B685A683B68DB6800F04FF97B681B68BB
:10203C009A687B681B6842F480429A603BE07B683C
:10204C0018683B6859683B68DB681A4600F0C6F8AC
:10205C007B681B685021184600F01DF92BE07B684B
:10206C0018683B6859683B68DB681A4600F0E4F86E
:10207C007B681B686021184600F00DF91BE07B683B
:10208C0018683B6859683B68DB681A4600F0A6F88C
:10209C007B681B684021184600F0FDF80BE07B685C
:1020AC001A683B681B681946104600F0F4F802E009
:1020BC0000BF00E000BF7B68012283F83D207B68F5
:1020CC00002283F83C20002318461037BD4680BD03
:1020DC0080B483B000AF786000BF0C37BD4680BCC5
:1020EC00704780B483B000AF786000BF0C37BD463A
:1020FC0080BC704780B483B000AF786000BF0C37F1
:10210C00BD4680BC704780B483B000AF786000BF20
:10211C000C37BD4680BC704780B485B000AF78608A
:10212C0039607B681B68FB607B68294A93420BD043
:10213C007B68B3F1804F07D07B68264A934203D06B
:10214C007B68254A934208D1FB6823F07003FB603F
:10215C003B685B68FA681343FB607B681C4A9342DC
:10216C000BD07B68B3F1804F07D07B68194A934240
:10217C0003D07B68184A934208D1FB6823F4407360
:10218C00FB603B68DB68FA681343FB60FB6823F079
:10219C0080023B685B691343FB607B68FA681A60DA
:1021AC003B689A687B68DA623B681A687B689A625B
:1021BC007B68074A934203D13B681A697B681A63B0
:1021CC007B6801225A6100BF1437BD4680BC704742
:1021DC00002C0140000400400008004080B487B08F
:1021EC0000AFF860B9607A60FB681B6A7B61FB68C2
:1021FC001B6A23F00102FB681A62FB689B693B6156
:10220C003B6923F0F0033B617B681B013A69134384
:10221C003B617B6923F00A037B617A69BB681343DA
:10222C007B61FB683A699A61FB687A691A6200BF44
:10223C001C37BD4680BC704780B487B000AFF860D7
:10224C00B9607A60FB681B6A23F01002FB681A62A3
:10225C00FB689B697B61FB681B6A3B617B6923F4B0
:10226C0070437B617B681B037A6913437B613B6919
:10227C0023F0A0033B61BB681B013A6913433B612C
:10228C00FB687A699A61FB683A691A6200BF1C376D
:10229C00BD4680BC704780B485B000AF78603960B3
:1022AC007B689B68FB60FB6823F07003FB603A68FB
:1022BC00FB68134343F00703FB607B68FA689A6082
:1022CC0000BF1437BD4680BC704780B487B000AFE8
:1022DC00F860B9607A603B60FB689B687B617B69E6
:1022EC0023F47F437B613B681A027B681A43BB680B
:1022FC0013437A6913437B61FB687A699A6000BF68
:10230C001C37BD4680BC704780B485B000AF786088
:10231C0039607B6893F83C30012B01D1022346E0F5
:10232C007B68012283F83C207B68022283F83D20E5
:10233C007B681B685B68FB607B681B689B68BB6089
:10234C00FB6823F07003FB603B681B68FA6813435F
:10235C00FB607B681B68FA685A607B681B68164ACE
:10236C0093420ED07B681B68B3F1804F09D07B6819
:10237C001B68124A934204D07B681B68104A934234
:10238C000CD1BB6823F08003BB603B685B68BA6808
:10239C001343BB607B681B68BA689A607B68012238
:1023AC0083F83D207B68002283F83C2000231846EC
:1023BC001437BD4680BC7047002C0140000400401F
:1023CC000008004080B483B000AF786000BF0C37C9
:1023DC00BD4680BC704780B483B000AF786000BF4E
:1023EC000C37BD4680BC704780B582B000AF7860BA
:1023FC007B68002B01D101233FE07B6893F83D30D3
:10240C00DBB2002B06D17B68002283F83C20786875
:10241C00FEF720FB7B68242283F83D207B681B6839
:10242C00DA687B681B6822F40052DA60786800F086
:10243C00EDFB7B681B681A697B681B6822F4904271
:10244C001A617B681B685A697B681B6822F02A0238
:10245C005A617B681B68DA687B681B6842F400521F
:10246C00DA607B6800221A647B68202283F83D20A6
:10247C007B68202283F83E20002318460837BD468F
:10248C0080BD80B485B000AFF860B9601346FB80A6
:10249C00FB6893F83D30DBB2202B30D1BB68002BAE
:1024AC0002D0FB88002B01D1012329E0FB6893F8B3
:1024BC003C30012B01D1022322E0FB68012283F87E
:1024CC003C20FB68BA681A62FB68FA889A84FB683D
:1024DC00FA88DA84FB6800221A64FB68212283F8EC
:1024EC003D20FB68002283F83C20FB681B68DA68FF
:1024FC00FB681B6842F08002DA60002300E00223D4
:10250C0018461437BD4680BC704780B584B000AF08
:10251C00F860B9601346FB80FB6893F83E30DBB281
:10252C00202B1DD1BB68002B02D0FB88002B01D1C6
:10253C00012316E0FB6893F83C30012B01D10223F8
:10254C000FE0FB68012283F83C20FB6800221A6331
:10255C00FB881A46B968F86800F0CFF9034600E02A
:10256C00022318461037BD4680BD000080B58AB0E6
:10257C0000AF78607B681B681B687B627B681B689C
:10258C00DB683B627B681B685B69FB610023BB619A
:10259C0000237B617B6A03F00F03BB61BB69002BDB
:1025AC000DD17B6A03F02003002B08D03B6A03F0AB
:1025BC002003002B03D0786800F07FFA7BE1BB6925
:1025CC00002B00F0B180FB6903F00103002B05D157
:1025DC003B6A03F49073002B00F0A6807B6A03F037
:1025EC000103002B0AD03B6A03F48073002B05D047
:1025FC007B681B6C43F001027B681A647B6A03F0F6
:10260C000403002B0AD0FB6903F00103002B05D057
:10261C007B681B6C43F002027B681A647B6A03F0D4
:10262C000203002B0AD0FB6903F00103002B05D039
:10263C007B681B6C43F004027B681A647B6A03F0B2
:10264C000803002B0FD03B6A03F02003002B04D1AE
:10265C00FB6903F00103002B05D07B681B6C43F076
:10266C0008027B681A647B681B6C002B00F01E81CF
:10267C007B6A03F02003002B07D03B6A03F0200396
:10268C00002B02D0786800F018FA7B681B685B6935
:10269C0003F04003002B14BF01230023DBB27B614A
:1026AC007B681B6C03F00803002B02D17B69002BA9
:1026BC0031D0786800F05AF97B681B685B6903F0CD
:1026CC004003002B23D07B681B685A697B681B680E
:1026DC0022F040025A617B689B6B002B13D07B6805
:1026EC009B6B764A5A637B689B6B1846FEF73CFCE7
:1026FC000346002B16D07B689B6B5B6B7A68926BE6
:10270C00104698470EE0786800F0E3F80AE0786825
:10271C0000F0DFF806E0786800F0DBF87B68002258
:10272C001A64C3E000BFC1E07B681B6B012B40F057
:10273C00A1807B6A03F01003002B00F09B803B6AA6
:10274C0003F01003002B00F095800023FB607B68E6
:10275C001B681B68FB607B681B685B68FB60FB6825
:10276C007B681B685B6903F04003002B4ED07B68D1
:10277C009B6B1B685B683B823B8A002B00F098804C
:10278C007B689B8D3A8A9A4280F092807B683A8A69
:10279C00DA857B689B6B9B69202B2BD07B681B6835
:1027AC00DA687B681B6822F48072DA607B681B68CD
:1027BC005A697B681B6822F001025A617B681B68AE
:1027CC005A697B681B6822F040025A617B682022A0
:1027DC0083F83E207B6800221A637B681B68DA68EA
:1027EC007B681B6822F01002DA607B689B6B1846D2
:1027FC00FEF77FFB7B689A8D7B68DB8D9BB2D31ACF
:10280C009BB21946786800F06DF851E07B689A8DA0
:10281C007B68DB8D9BB2D31A7B827B68DB8D9BB292
:10282C00002B47D07B8A002B44D07B681B68DA686E
:10283C007B681B6822F49072DA607B681B685A69AB
:10284C007B681B6822F001025A617B68202283F8A6
:10285C003E207B6800221A637B681B68DA687B6801
:10286C001B6822F01002DA607B8A1946786800F047
:10287C0039F81FE07B6A03F08003002B08D03B6A19
:10288C0003F08003002B03D0786800F0AFF812E05F
:10289C007B6A03F04003002B0DD03B6A03F040032E
:1028AC00002B08D0786800F0F0F804E000BF02E0DC
:1028BC0000BF00E000BF2837BD4680BDD12900080D
:1028CC0080B483B000AF786000BF0C37BD4680BCCD
:1028DC00704780B483B000AF786000BF0C37BD4642
:1028EC0080BC704780B483B000AF78600B467B80AF
:1028FC0000BF0C37BD4680BC704780B485B000AFBC
:10290C00F860B9601346FB80FB68BA689A62FB6892
:10291C00FA889A85FB68FA88DA85FB6800221A64C3
:10292C00FB68222283F83E20FB68002283F83C20BF
:10293C00FB681B68DA68FB681B6842F48072DA601B
:10294C00FB681B685A69FB681B6842F001025A61FC
:10295C00FB681B68DA68FB681B6842F02002DA60CF
:10296C00002318461437BD4680BC704780B483B032
:10297C0000AF78607B681B68DA687B681B6822F4A0
:10298C009072DA607B681B685A697B681B6822F05E
:10299C0001025A617B681B6B012B07D17B681B689A
:1029AC00DA687B681B6822F01002DA607B682022F0
:1029BC0083F83E207B6800221A6300BF0C37BD46AB
:1029CC0080BC704780B584B000AF78607B685B6A70
:1029DC00FB60FB680022DA85FB680022DA84F86869
:1029EC00FFF777FF00BF1037BD4680BD80B485B0C0
:1029FC0000AF78607B6893F83D30DBB2212B3ED181
:102A0C007B689B68B3F5805F14D17B681B69002BD6
:102A1C0010D17B681B6AFB60FB681B881A467B68BD
:102A2C001B68C2F308025A607B681B6A9A1C7B689D
:102A3C001A6208E07B681B6A591C7A6811621A7862
:102A4C007B681B685A607B68DB8C9BB2013B9BB23A
:102A5C007A681946D184002B0FD17B681B68DA6821
:102A6C007B681B6822F08002DA607B681B68DA687E
:102A7C007B681B6842F04002DA60002300E002230E
:102A8C0018461437BD4680BC704780B582B000AF85
:102A9C0078607B681B68DA687B681B6822F04002F0
:102AAC00DA607B68202283F83D207868FFF708FF06
:102ABC00002318460837BD4680BD80B586B000AFF0
:102ACC0078607B6893F83E30DBB2222B40F0998023
:102ADC007B689B68B3F5805F17D17B681B69002B03
:102AEC0013D100237B617B689B6A3B617B681B680D
:102AFC005B689BB2C3F308039AB23B691A807B688C
:102B0C009B6A9A1C7B689A6226E07B689B6A7B6155
:102B1C0000233B617B689B68B3F5805F07D07B68C3
:102B2C009B68002B0AD17B681B69002B06D17B6844
:102B3C001B685B68DAB27B691A7008E07B681B68FB
:102B4C005B68DBB203F07F03DAB27B691A707B68D7
:102B5C009B6A5A1C7B689A627B68DB8D9BB2013B3B
:102B6C009BB27A681946D185002B48D17B681B68CB
:102B7C00DA687B681B6822F02002DA607B681B68CD
:102B8C00DA687B681B6822F48072DA607B681B68E9
:102B9C005A697B681B6822F001025A617B6820220B
:102BAC0083F83E207B681B6B012B23D17B680022B2
:102BBC001A637B681B68DA687B681B6822F010025A
:102BCC00DA607B681B681B6803F01003102B0AD1BA
:102BDC000023FB607B681B681B68FB607B681B68C1
:102BEC005B68FB60FB687B689B8D19467868FFF718
:102BFC0079FE02E07868FDF7E3FC002302E0002395
:102C0C0000E0022318461837BD4680BD80B584B05D
:102C1C0000AF78607B681B681B6923F440517B68AC
:102C2C00DA687B681B680A431A617B689A687B6860
:102C3C001B691A437B685B691343BB607B681B6829
:102C4C00DB6823F4B05323F00C037A681268B9687C
:102C5C000B43D3607B681B685B6923F440717B6812
:102C6C009A697B681B680A435A617B681B682C4A0B
:102C7C00934203D1FEF78CFFF86002E0FEF774FF7D
:102C8C00F860FA6813469B0013449A001A447B6858
:102C9C005B689B00B2FBF3F3224AA2FB03235B09A4
:102CAC001901FA6813469B0013449A001A447B6876
:102CBC005B689B00B2FBF3F21A4BA3FB02035B09AC
:102CCC00642000FB03F3D31A1B013233154AA2FB19
:102CDC0003235B0903F0F0031944FA6813469B00C5
:102CEC0013449A001A447B685B689B00B2FBF3F2B6
:102CFC000C4BA3FB02035B09642000FB03F3D31A08
:102D0C001B013233074AA2FB03235B0903F00F02BA
:102D1C007B681B680A449A6000BF1037BD4680BDB3
:102D2C00003801401F85EB5170B500260C4D0D4C41
:102D3C00641BA410A64209D100F022F800260A4D0B
:102D4C000A4C641BA410A64205D170BD55F8043B77
:102D5C0098470136EEE755F8043B98470136F2E701
:102D6C00DC2D0008DC2D0008DC2D0008E02D00080F
:102D7C0003460244934200D1704703F8011BF9E764
:102D8C00F8B500BFF8BC08BC9E467047F8B500BF4C
:082D9C00F8BC08BC9E4670471C
:102DA4000000000000000000010101010101000019
:102DB40002030405060708090A0B0C0D0E0F101078
:102DC40000000000000000000102030406070809D7
:082DD4000000000001020304ED
:042DDC0031010008B9
:042DE0000D010008D9
:102DE4004B0000004B0000004B0000004B000000B3
:102DF4004B0000004B0000000024F4001000000011
:042E040001000000C9
:0400000508000B8D57
:00000001FF
